:040000003CEF00F0E1
:100008000782F2A80AEF00F00CEF00F016EF00F0FC
:10001800F2A211EF00F013EF00F016EF00F0054A1E
:10002800062AF292F2AA1BEF00F01DEF00F03AEF59
:1000380000F0F2A422EF00F024EF00F03AEF00F015
:10004800F29402BE33EF00F0025007E1040E015CA7
:10005800D8B031EF00F033EF00F039EF00F0014A8B
:10006800022A180E836E3AEF00F083680792110097
:1000780060EF00F0D3508F0B7009D36E9368000EB9
:100088000F01396F000E956E6BEC00F005500318E8
:1000980009E106500418D8B454EF00F056EF00F008
:1000A8004AEF00F005C083FF05C003F006C004F066
:1000B8004AEF00F03CEF00F0066A056A046A036A3A
:1000C800026A016A0790079200013EEF00F0D58EA0
:1000D800D58CD59AD598D586F29EF28CF28AD08E98
:0400E800F28E120082
:020000040020DA
:08000000FFFFFFFFFFFFFFFF00
:020000040030CA
:0E000000FF691F3CFFBF85FF03C003E0034004
:00000001FF
