:0400000030EF00F0ED
:100008005E82F2AA0AEF00F00CEF00F019EF00F0A0
:10001800F2A411EF00F013EF00F019EF00F0F294E2
:100028000001F54BF62B2EEF00F0F2A81EEF00F0C2
:1000380020EF00F02EEF00F0F2A225EF00F027EFFE
:1000480000F02EEF00F0000E0001F46F010EF36FC8
:0C005800F298F2925E9211002DEF1DF064
:100300000043616C6962726174696F6E20646F6E24
:10031000650042756C6C6574206465746563746512
:10032000640043616C6962726174696E672E2E2E7F
:1003300000565B636D2F735D3A202566005468207C
:1003400062723A2025640054682066723A2025645F
:1003500000545B6D735D3A202566004D65617375D1
:1003600072696E6700494E46004E414E00696E66E6
:09037000006E616E006C66000075
:10037A00000E0001756F000E746F30C086F031C038
:10038A0087F032C088F033C089F089BFD1EF01F01D
:10039A00CFEF01F0E7EF01F0000E756F010E746FF9
:1003AA0086C001F087C002F088C003F089C004F05B
:1003BA0018EC1EF001C086F002C087F003C088F076
:1003CA0004C089F0000E00018D6F000E8C6FF1C021
:1003DA0078F0F2C079F074517511D8A4F7EF01F0F2
:1003EA00F9EF01F000EF02F05AA4FEEF01F000EF7E
:1003FA0002F01AEF02F074517511D8A407EF02F057
:10040A0009EF02F00FEF02F0000E616F2B0E606F22
:10041A0013EF02F0000E616F2D0E606F60C062F183
:10042A008C4B8D2B7807D8A0790786C001F087C03E
:10043A0002F088C003F089C004F06BEC18F00104E4
:10044A000210D8A42BEF02F02DEF02F078EF02F0A1
:10045A00BF0E356EFF0E366E3450376E386A355021
:10046A00372636503822385007E11A0E375CD8B092
:10047A0041EF02F043EF02F052EF02F0620E000188
:10048A008C25016E010E8D21026E650E036E030E20
:10049A00046ED6EC1CF05FEF02F0620E00018C25B0
:1004AA00016E010E8D21026E6D0E036E030E046E37
:1004BA00D6EC1CF00001FD0E7827FF0E79232EC022
:1004CA0011F02FC012F0620E136E010E146E78C076
:1004DA0015F079C016F01CEC1AF011C02EF012C0FB
:1004EA002FF0C4EF07F086C001F087C002F088C081
:1004FA0003F089C004F06BEC18F001500210D8A484
:10050A0089EF02F08BEF02F0BFEF02F0BF0E356EFB
:10051A00FF0E366E3450376E386A355037263650ED
:10052A003822385007E11A0E375CD8B09FEF02F034
:10053A00A1EF02F0B0EF02F0620E00018C25016E0D
:10054A00010E8D21026E690E036E030E046ED6EC47
:10055A001CF05FEF02F0620E00018C25016E010EA5
:10056A008D21026E710E036E030E046ED6EC1CF022
:10057A005FEF02F0000E00018E6F000E8F6F800E8B
:10058A00906F3F0E916F000E8B6F000E8A6F86C0C0
:10059A0001F087C002F088C003F089C004F0000EA1
:1005AA00056E000E066E000E076E000E086ED5EC84
:1005BA001AF0D8B0E3EF02F0E5EF02F068EF03F0CB
:1005CA0004EF03F08EC001F08FC002F090C003F078
:1005DA0091C004F0000E056E000E066E200E076E26
:1005EA00410E086E25EC0AF001C08EF002C08FF0B1
:1005FA0003C090F004C091F000018A4B8B2B86C097
:10060A001AF087C01BF088C01CF089C01DF0000ECC
:10061A00056E000E066E200E076E410E086E8EC025
:10062A0001F08FC002F090C003F091C004F025ECF5
:10063A000AF001C01EF002C01FF003C020F004C07F
:10064A0021F0E9EC17F0D8B02DEF03F02FEF03F00B
:10065A00E7EF02F04FEF03F08EC001F08FC002F017
:10066A0090C003F091C004F0000E056E000E066EF5
:10067A00200E076E410E086E34EC0EF001C08EF0AB
:10068A0002C08FF003C090F004C091F000018A0705
:10069A00D8A08B0786C01AF087C01BF088C01CF050
:1006AA0089C01DF08EC01EF08FC01FF090C020F0D0
:1006BA0091C021F0E9EC17F0D8A066EF03F068EFDB
:1006CA0003F031EF03F034C007F0086A52EC1DF072
:1006DA00075000017B6F7BC07AF0670E7B19D8A4A4
:1006EA0079EF03F07BEF03F0A1EF03F058505910B4
:1006FA00D8A482EF03F084EF03F088EF03F0000E32
:10070A00596E010E586E59BE95EF03F0595006E125
:10071A005804D8B093EF03F095EF03F09BEF03F082
:10072A00000E776F060E766FAAEF03F058C076F0C8
:10073A0059C077F0AAEF03F059BEA6EF03F0A8EF6D
:10074A0003F095EF03F09BEF03F0670E7B19D8A433
:10075A00B1EF03F0B3EF03F0E2EF03F08BAFC1EFB9
:10076A0003F0FC0E8A5DFF0E8B59D8A0BFEF03F091
:10077A00C1EF03F0E0EF03F0FF0E356EFF0E366EA9
:10078A0076C037F077C038F03550372636503822E1
:10079A008A51375C3850800A396E8B51800A395831
:1007AA00D8A0DAEF03F0DCEF03F0E0EF03F0660E17
:1007BA007A6FE2EF03F0650E7A6F76C06CF077C05D
:1007CA006DF0670E7B19D8A4EDEF03F0EFEF03F09D
:1007DA00FFEF03F0660E7A19D8A4F6EF03F0F8EFEC
:1007EA0003F001EF04F08BBFFFEF03F0FDEF03F01E
:1007FA0001EF04F06C4B6D2B660E7A19D8A408EF42
:10080A0004F00AEF04F02AEF04F08BBF11EF04F0B2
:10081A000FEF04F01DEF04F0000E8E6F000E8F6FC5
:10082A00800E906F3F0E916F000E8B6F000E8A6FD5
:10083A00670E7B19D8B424EF04F026EF04F02AEFF0
:10084A0004F08A516C278B516D23000E856F000EC0
:10085A00846F86C07CF087C07DF088C07EF089C036
:10086A007FF08EC06EF08FC06FF090C070F091C0B4
:10087A0071F0BBEF04F07CC001F07DC002F07EC0D5
:10088A0003F07FC004F08EC005F08FC006F090C060
:10089A0007F091C008F034EC0EF001C01AF002C063
:1008AA001BF003C01CF004C01DF070EC11F01AC05C
:1008BA0080F01BC081F01CC082F01DC083F080C094
:1008CA0001F081C002F082C003F083C004F066EC3C
:1008DA0017F001C072F002C073F07CC01AF07DC03C
:1008EA001BF07EC01CF07FC01DF08EC005F08FC0CB
:1008FA0006F090C007F091C008F080C001F081C0F6
:10090A0002F082C003F083C004F025EC0AF001C0B3
:10091A001EF002C01FF003C020F004C021F075ECE5
:10092A001DF01AC07CF01BC07DF01CC07EF01DC0FB
:10093A007FF08EC001F08FC002F090C003F091C02A
:10094A0004F0000E056E000E066E200E076E410EB4
:10095A00086E34EC0EF001C08EF002C08FF003C0B6
:10096A0090F004C091F00001844B852B6C51845D9A
:10097A008551800A356E6D51800A3558D8A0C8EF66
:10098A0004F0CAEF04F040EF04F08EC001F08FC00B
:10099A0002F090C003F091C004F0000E056E000E44
:1009AA00066EA00E076E400E086E25EC0AF001C016
:1009BA0080F002C081F003C082F004C083F07CC0E2
:1009CA001AF07DC01BF07EC01CF07FC01DF080C0F5
:1009DA001EF081C01FF082C020F083C021F0E9EC34
:1009EA0017F0D8B0FBEF04F0FDEF04F008EF05F0C4
:1009FA00000E0001806F000E816F000E826F000EE4
:100A0A00836F31EF05F07CC001F07DC002F07EC03B
:100A1A0003F07FC004F080C005F081C006F082C0F8
:100A2A0007F083C008F0D5EC1AF0D8A01FEF05F044
:100A3A0021EF05F031EF05F0000172B127EF05F063
:100A4A0029EF05F031EF05F0000E806F000E816F7F
:100A5A00000E826F000E836F86C001F087C002F01D
:100A6A0088C003F089C004F080C005F081C006F098
:100A7A0082C007F083C008F0C5EC07F001C07CF023
:100A8A0002C07DF003C07EF004C07FF07CC01AF083
:100A9A007DC01BF07EC01CF07FC01DF0000E056EED
:100AAA00000E066E200E076E410E086E6EC001F033
:100ABA006FC002F070C003F071C004F025EC0AF0B8
:100ACA0001C01EF002C01FF003C020F004C021F0D4
:100ADA00E9EC17F0D8A074EF05F076EF05F09FEF78
:100AEA0005F000018A4B8B2B6EC001F06FC002F03B
:100AFA0070C003F071C004F0000E056E000E066EA1
:100B0A00200E076E410E086E25EC0AF001C06EF049
:100B1A0002C06FF003C070F004C071F0660E0001ED
:100B2A007A19D8A49BEF05F09DEF05F09FEF05F029
:100B3A006C4B6D2B6EC08EF06FC08FF070C090F052
:100B4A0071C091F0650E00017A19D8B4AFEF05F0C3
:100B5A00B1EF05F0B7EF05F08AC06AF08BC06BF011
:100B6A00BBEF05F0000E6B6F000E6A6F000E696F27
:100B7A00000E686F000E676F000E666F000E856FBD
:100B8A00000E846FB7EF06F07CC001F07DC002F062
:100B9A007EC003F07FC004F08EC005F08FC006F05F
:100BAA0090C007F091C008F034EC0EF001C01AF0C2
:100BBA0002C01BF003C01CF004C01DF070EC11F061
:100BCA001AC080F01BC081F01CC082F01DC083F0E7
:100BDA0080C001F081C002F082C003F083C004F03B
:100BEA0066EC17F001C072F002C073F05AB800EF59
:100BFA0006F002EF06F020EF06F0000172517311C1
:100C0A00D8A40AEF06F00CEF06F020EF06F0670E04
:100C1A007B19D8A413EF06F015EF06F020EF06F0C3
:100C2A006BBF1CEF06F01AEF06F020EF06F0664BDA
:100C3A00672B6BEF06F0000168516911D8A428EF01
:100C4A0006F02AEF06F054EF06F06BBF31EF06F01C
:100C5A002FEF06F054EF06F0620E8C25D96E010EC6
:100C6A008D21DA6E2E0EDF6E8C4B8D2B7807D8A075
:100C7A007907000E696F010E686F54EF06F0620E75
:100C8A008C25D96E010E8D21DA6E300EDF6E8C4BFB
:100C9A008D2B7807D8A079076607D8A06707665111
:100CAA006711D8A45BEF06F05DEF06F044EF06F09B
:100CBA00620E8C25D96E010E8D21DA6E7251300FBB
:100CCA00DF6E8C4B8D2B7807D8A079077CC01AF081
:100CDA007DC01BF07EC01CF07FC01DF08EC005F0E9
:100CEA008FC006F090C007F091C008F080C001F0F4
:100CFA0081C002F082C003F083C004F025EC0AF040
:100D0A0001C01EF002C01FF003C020F004C021F091
:100D1A0075EC1DF01AC07CF01BC07DF01CC07EF083
:100D2A001DC07FF08EC001F08FC002F090C003F0AA
:100D3A0091C004F0000E056E000E066E200E076EBE
:100D4A00410E086E34EC0EF001C08EF002C08FF036
:100D5A0003C090F004C091F000016A07D8A06B07A5
:100D6A00844B852B6C51845D8551800A356E6D519B
:100D7A00800A3558D8B0C4EF06F0C6EF06F0D4EFB3
:100D8A0006F08DBFD2EF06F08D5109E14B0E8C5D56
:100D9A00D8A0D2EF06F0D4EF06F0C9EF05F06851FB
:100DAA006911D8A4DBEF06F0DDEF06F0EEEF06F0EE
:100DBA005AA8E2EF06F0E4EF06F0EEEF06F0620E54
:100DCA008C25D96E010E8D21DA6E2E0EDF6E8C4BBC
:100DDA008D2B620E8C25D96E010E8D21DA6E000ED6
:100DEA00DF6E650E7A19D8A4FDEF06F0FFEF06F064
:100DFA0064EF02F0000E856F4F0E846F620E842539
:100E0A00D96E010E8521DA6E000EDF6E000E756F47
:100E1A00000E746F8BBF16EF07F014EF07F01EEF8A
:100E2A0007F0000E756F010E746F8A6D8B1FD8B0B4
:100E3A008B2B000E776F020E766F4FEF07F0840749
:100E4A00D8A08507620E8425D96E010E8521DA6E37
:100E5A008AC001F08BC002F0000E046E0A0E036E07
:100E6A007DEC1AF00150300FDF6E8AC001F08BC0A2
:100E7A0002F0000E046E0A0E036EBAEC19F001C0FD
:100E8A008AF002C08BF000017607D8A077077807AE
:100E9A00D8A079078A518B11D8A456EF07F058EFDA
:100EAA0007F024EF07F077BF65EF07F0775106E107
:100EBA007605D8B063EF07F065EF07F024EF07F087
:100ECA008407D8A0850774517511D8A46FEF07F06D
:100EDA0071EF07F077EF07F0000E636F2B0E626F6A
:100EEA007BEF07F0000E636F2D0E626F620E842592
:100EFA00D96E010E8521DA6E62C0DFFF7807D8A0AD
:100F0A0079078407D8A08507BF0E356EFF0E366EA7
:100F1A003450376E386A35503726365038223850B2
:100F2A0009E11A0E375CD8A09DEF07F09FEF07F092
:100F3A00A5EF07F0000E656F650E646FA9EF07F065
:100F4A00000E656F450E646F620E8425D96E010E20
:100F5A008521DA6E64C0DFFF7807D8A07907620EB0
:100F6A008C25016E010E8D21026E620E8425036EA0
:100F7A00010E8521046ED6EC1CF064EF02F012001B
:100F8A000450800B0D6E045004240F6E03AED0EF94
:100F9A0007F0D2EF07F0D3EF07F00F800F50D8B465
:100FAA00D9EF07F0DBEF07F0F0EF07F00F28D8A42E
:100FBA00E1EF07F0E3EF07F0EBEF07F0000E016E49
:100FCA00000E026E000E036E000E046E038E000EFB
:100FDA00046EF8EF07F0000E016E000E026E000EAE
:100FEA00036E000E046E0850800B0E6E0D500E1824
:100FFA00D8B402EF08F004EF08F005EF08F00D8C02
:10100A00085008240E6E07AE0DEF08F00FEF08F037
:10101A0010EF08F00E800E50D8B416EF08F018EF53
:10102A0008F02DEF08F00E28D8A41EEF08F020EFE4
:10103A0008F028EF08F0000E056E000E066E000E8E
:10104A00076E000E086E078E000E086E35EF08F068
:10105A00000E056E000E066E000E076E000E086E7C
:10106A000F500E5CD8B03CEF08F03EEF08F065EF89
:10107A0008F00DAC43EF08F045EF08F047EF08F031
:10108A00800E0D1A0FC010F00EC00FF010C00EF037
:10109A0001C010F005C001F010C005F002C010F048
:1010AA0006C002F010C006F003C010F007C003F03B
:1010BA0010C007F004C010F008C004F010C008F017
:1010CA00000E106E0F500EC009F00A6A095E000E7B
:1010DA000A5A0ABE7AEF08F00A5009E11A0E095CA8
:1010EA00D8A07AEF08F07CEF08F0B3EF08F00150CF
:1010FA00021003100410D8A485EF08F088EF08F056
:10110A00010E89EF08F0000E106E000E016E000E3F
:10111A00026E000E036E000E046E0EC00FF0BCEFDE
:10112A0008F010A09BEF08F09DEF08F0A3EF08F07D
:10113A00D89010300109106EA5EF08F0D89010323F
:10114A0001A0AAEF08F0ACEF08F0ADEF08F0108E9E
:10115A00043404320332023201320F2A0E500F5C79
:10116A00D8A0BAEF08F0BCEF08F096EF08F00DBC73
:10117A00C1EF08F0C3EF08F003EF09F00F50D8A44D
:10118A00C9EF08F0CBEF08F0D5EF08F0000E016EBA
:10119A00000E026E000E036E000E046E24EF0AF0BB
:1011AA000550012606500222075003220850042245
:1011BA0004A0E2EF08F0E4EF08F090EF09F010A0C5
:1011CA00E9EF08F0EBEF08F0F1EF08F0D8901030F3
:1011DA000109106EF3EF08F0D890103201A0F8EF71
:1011EA0008F0FAEF08F0FBEF08F0108E043404322E
:1011FA000332023201320F2A90EF09F00550015CE6
:10120A0006500258075003580450800A096E0850C5
:10121A00800A0958D8B014EF09F016EF09F041EF27
:10122A0009F00150055C096E025006580A6E035017
:10123A0007580B6E045008580C6EFF0E0924016EF5
:10124A00FF0E0A20026EFF0E0B20036EFF0E0C200B
:10125A00046E800E0D1A106C1050D8A437EF09F0E6
:10126A0039EF09F049EF09F0010E0126000E0222BA
:10127A000322042249EF09F00550015E0650025A82
:10128A000750035A0850045A015002100310041060
:10129A00D8A452EF09F054EF09F089EF09F0105081
:1012AA00D8A45AEF09F05CEF09F089EF09F0000EB3
:1012BA00016E000E026E000E036E000E046E24EF25
:1012CA000AF0D890013602360336043610AE70EFB3
:1012DA0009F072EF09F073EF09F0018010A078EFBE
:1012EA0009F07AEF09F07EEF09F0D880103680EF26
:1012FA0009F0D89010360F50D8B486EF09F088EF6D
:10130A0009F089EF09F00F0603AE8EEF09F090EFAE
:10131A0009F066EF09F0000E0E6E10AE97EF09F0B5
:10132A0099EF09F0B1EF09F010C009F07F0E091624
:10133A00D8B4A2EF09F0A4EF09F0A8EF09F0010E62
:10134A000E6EB1EF09F001A0ADEF09F0AFEF09F0B1
:10135A00B1EF09F0A4EF09F00E50D8B4B7EF09F0D5
:10136A00B9EF09F0E4EF09F0010E0126000E02229E
:10137A000322042204A0C4EF09F0C6EF09F0E4EF47
:10138A0009F001C009F002C00AF003C00BF004C062
:10139A000CF00C340C320B320A32093209C001F05B
:1013AA000AC002F00BC003F00CC004F00F28D8B436
:1013BA00E1EF09F0E3EF09F0E4EF09F00F2A0F2853
:1013CA00D8B4EAEF09F0ECEF09F0F4EF09F00F50A6
:1013DA00D8A4F2EF09F0F4EF09F006EF0AF0000ED4
:1013EA00016E000E026E000E036E000E046E0F50A8
:1013FA00D8A402EF0AF004EF0AF006EF0AF0000E92
:10140A000D6E0FA00BEF0AF00DEF0AF010EF0AF0C5
:10141A00038E11EF0AF0039ED8900F30046E0DAEC2
:10142A0019EF0AF01BEF0AF01CEF0AF0048E01C054
:10143A0001F002C002F003C003F004C004F012007D
:10144A000450800B0D6E04500424136E03AE30EF6B
:10145A000AF032EF0AF033EF0AF013801350D8B4CF
:10146A0039EF0AF03BEF0AF04EEF0AF01328D8A43E
:10147A0041EF0AF043EF0AF04BEF0AF0000E016E5B
:10148A00000E026E000E036E000E046E038E56EFFF
:10149A000AF0000E016E000E026E000E036E000EC0
:1014AA00046E0850800B0D1A08500824126E07AEFD
:1014BA0061EF0AF063EF0AF064EF0AF0128012504B
:1014CA00D8B46AEF0AF06CEF0AF07FEF0AF012283C
:1014DA00D8A472EF0AF074EF0AF07CEF0AF0000E5B
:1014EA00056E000E066E000E076E000E086E078E61
:1014FA0087EF0AF0000E056E000E066E000E076EEC
:10150A00000E086E1250D8B48DEF0AF08FEF0AF071
:10151A0097EF0AF01350D8A495EF0AF097EF0AF064
:10152A00A1EF0AF0000E016E000E026E000E036EAD
:10153A00000E046E39EF0CF007500102F3CF18F0D9
:10154A00F4CF19F018500E6E0F6A106A116A19500A
:10155A00146E156A166A176A06500202F3CF18F05B
:10156A00F4CF19F018500E26000E0F221022112265
:10157A0019501426000E15221622172205500302AE
:10158A00F3CF18F0F4CF19F018500E26000E0F22E0
:10159A001022112219501426000E15221622172283
:1015AA0010C011F00FC010F00EC00FF00E6A0550F7
:1015BA000202F3CF18F0F4CF19F018500E26195082
:1015CA000F22000E1022000E112206500102F3CF44
:1015DA0018F0F4CF19F018500E2619500F22000EE9
:1015EA001022000E112210C011F00FC010F00EC010
:1015FA000FF00E6A05500102F3CF18F0F4CF19F07C
:10160A0018500E2619500F22000E1022000E112219
:10161A0007500202F3CF18F0F4CF19F0185014262D
:10162A0019501522000E1622000E17220650030228
:10163A00F3CF18F0F4CF19F01850142619501522C8
:10164A00000E1622000E172207500302F3CF18F0DD
:10165A00F4CF19F01850096E19500A6E0B6A0C6A09
:10166A000BC00CF00AC00BF009C00AF0096A095055
:10167A0014260A5015220B5016220C5017220EC09F
:10168A0009F00FC00AF010C00BF011C00CF0190ECF
:10169A0054EF0BF0D8900C320B320A320932E82E92
:1016AA004FEF0BF0095014260A5015220B50162240
:1016BA000C50172210C011F00FC010F00EC00FF01E
:1016CA000E6A125013C009F00A6A0926000E0A228D
:1016DA00820E0924186EFF0E0A20196E8AEF0BF08B
:1016EA00D890143615361636173611AE7FEF0BF032
:1016FA0081EF0BF082EF0BF01480D8900E360F3684
:10170A00103611361806D8A0190616AE8FEF0BF050
:10171A0091EF0BF075EF0BF0000E126E11AE98EF11
:10172A000BF09AEF0BF0BEEF0BF0FF0E0E14096EE2
:10173A00FF0E0F140A6EFF0E10140B6E7F0E11149B
:10174A000C6E09500A100B100C10D8B4AFEF0BF046
:10175A00B1EF0BF0B5EF0BF0010E126EBEEF0BF00E
:10176A0014A0BAEF0BF0BCEF0BF0BEEF0BF0B1EF29
:10177A000BF01250D8B4C4EF0BF0C6EF0BF0EAEF3F
:10178A000BF0010E1426000E15221622172217A09E
:10179A00D1EF0BF0D3EF0BF0EAEF0BF014C009F026
:1017AA0015C00AF016C00BF017C00CF00C340C323E
:1017BA000B320A32093209C014F00AC015F00BC004
:1017CA0016F00CC017F0184A192A19BEF5EF0BF0DB
:1017DA00195008E11828D8A0F5EF0BF0F7EF0BF035
:1017EA0001EF0CF0000E146E000E156E800E166ED0
:1017FA007F0E176E2FEF0CF019BE0EEF0CF019507A
:10180A0006E11804D8B00CEF0CF00EEF0CF01AEF4A
:10181A000CF0000E146E000E156E000E166E000E01
:10182A00176E000E0D6E2FEF0CF018C013F0FF0E9E
:10183A001416FF0E15167F0E1616000E171613A095
:10184A0029EF0CF02BEF0CF02CEF0CF0168ED89041
:10185A001330176E0D50171214C001F015C002F0A4
:10186A0016C003F017C004F0120094C0D9FF95C047
:10187A00DAFFDECFF6FFDDCFF7FF0800F550250AC5
:10188A00D8A44AEF0CF04CEF0CF018EF0EF094C00D
:10189A00D9FF95C0DAFFDE2A000EDD22000E000114
:1018AA00F26F000EF16FF1C05AF0F2C05BF05868A7
:1018BA00596894C0D9FF95C0DAFFDECFF6FFDDCFB5
:1018CA00F7FF0800F550076E086A52EC1DF0075042
:1018DA00506E5050D8B474EF0CF076EF0CF0AEEFB7
:1018EA000CF094C0D9FF95C0DAFFDECF40F0DDCF0F
:1018FA0041F0010E4026000E412240C0F6FF41C0D1
:10190A00F7FF0800F550076E086A52EC1DF0075001
:10191A00516E5150D8B494EF0CF096EF0CF0AEEF34
:10192A000CF094C0D9FF95C0DAFFDECF40F0DDCFCE
:10193A0041F0020E4026000E412240C0F6FF41C08F
:10194A00F7FF0800F550076E086A52EC1DF00750C1
:10195A00526E94C0D9FF95C0DAFFDECFF6FFDDCF15
:10196A00F7FF0800F550640AD8B4BEEF0CF0C0EFD8
:10197A000CF0D2EF0CF094C0D9FF95C0DAFFDECF9D
:10198A00F6FFDDCFF7FF0800F550690AD8A4D0EFBB
:10199A000CF0D2EF0CF012EF0DF094C0D9FF95C005
:1019AA00DAFFDE2A000EDD2296C0D9FF97C0DAFFE1
:1019BA00DFCF40F0020EDE26DFCF41F0000EDD223F
:1019CA0040C0D9FF41C0DAFFDECF44F0DDCF45F099
:1019DA00000E45BEFF0E466E476E486E496E4A6E51
:1019EA004B6E92C01CF093C01DF044C01EF045C05F
:1019FA001FF046C020F047C021F048C022F049C07D
:101A0A0023F04AC024F04BC025F001EC10F01CC0B2
:101A1A0092F01DC093F033EF0EF0660E5018D8A462
:101A2A0019EF0DF01BEF0DF05BEF0DF094C0D9FF2D
:101A3A0095C0DAFFDECFF6FFDDCFF7FF0800F5CF5E
:101A4A0053F094C0D9FF95C0DAFFDE2A000EDD22DA
:101A5A0096C0D9FF97C0DAFFDFCF40F0040EDE262A
:101A6A00DFCF41F0000EDD2240C0D9FF41C0DAFFCE
:101A7A00DECF4CF0DECF4DF0DECF4EF0DECF4FF0B2
:101A8A0092C02EF093C02FF04CC030F04DC031F010
:101A9A004EC032F04FC033F053C034F0BDEC01F009
:101AAA002EC092F02FC093F033EF0EF0500E016E5D
:101ABA00000E026E750E036E030E046E000E066EA5
:101ACA00020E056EEAEC18F001500210D8A470EF6D
:101ADA000DF072EF0DF0E0EF0DF094C0D9FF95C054
:101AEA00DAFFDECF40F0DDCF41F0010E4026000ED6
:101AFA00412240C0F6FF41C0F7FF0800F5CF53F07E
:101B0A00BF0E406EFF0E416E94C0D9FF95C0DAFF3A
:101B1A00DECFF6FFDDCFF7FF0800F550426E436ACD
:101B2A004050422641504322435007E11A0E425C7C
:101B3A00D8B0A2EF0DF0A4EF0DF0BEEF0DF096C0F5
:101B4A00D9FF97C0DAFFDFCF40F0040EDE26DFCFE1
:101B5A0041F0000EDD2240C0D9FF41C0DAFFDECFDE
:101B6A004CF0DECF4DF0DECF4EF0DECF4FF0D6EFA9
:101B7A000DF096C0D9FF97C0DAFFDFCF40F0040E10
:101B8A00DE26DFCF41F0000EDD2240C0D9FF41C082
:101B9A00DAFFDECF4CF0DECF4DF0DECF4EF0DECFF7
:101BAA004FF0020E94C0D9FF95C0DAFFDE26000E70
:101BBA00DD2245EF0DF094C0D9FF95C0DAFFDECFE4
:101BCA00F6FFDDCFF7FF0800F550250AD8A4F0EF9D
:101BDA000DF0F2EF0DF00AEF0EF094C0D9FF95C0A8
:101BEA00DAFFDE2A000EDD22000E026E250E016EDD
:101BFA0092C003F093C004F055EC19F0000E0001F6
:101C0A00936F010E926F33EF0EF094C0D9FF95C017
:101C1A00DAFFDE2A000EDD22000E0001936F000EAD
:101C2A00926F33EF0EF094C0D9FF95C0DAFFDECF82
:101C3A00F6FFDDCFF7FF0800F550016E026A92C089
:101C4A0003F093C004F055EC19F094C0D9FF95C085
:101C5A00DAFFDE2A000EDD2203EF0EF01200045036
:101C6A00800B116E04500424186E03AE3FEF0EF081
:101C7A0041EF0EF042EF0EF018801850D8B448EF3A
:101C8A000EF04AEF0EF05FEF0EF01828D8A450EFCE
:101C9A000EF052EF0EF05AEF0EF0000E016E000E2B
:101CAA00026E000E036E000E046E038E000E046EAA
:101CBA0067EF0EF0000E016E000E026E000E036E4C
:101CCA00000E046E0850800B111A08500824196E71
:101CDA0007AE72EF0EF074EF0EF075EF0EF019808A
:101CEA001950D8B47BEF0EF07DEF0EF092EF0EF0A4
:101CFA001928D8A483EF0EF085EF0EF08DEF0EF0C1
:101D0A00000E056E000E066E000E076E000E086EBF
:101D1A00078E000E086E9AEF0EF0000E056E000E8A
:101D2A00066E000E076E000E086E055006100710AC
:101D3A000810D8A4A3EF0EF0A5EF0EF0BDEF0EF039
:101D4A00000E016E000E026E000E036E000E046E8F
:101D5A00800E03127F0E04121150041201C001F00A
:101D6A0002C002F003C003F004C004F000EF10F058
:101D7A001850D8A4C3EF0EF0C5EF0EF0CFEF0EF057
:101D8A00000E016E000E026E000E036E000E046E4F
:101D9A0000EF10F0195018C009F00A6A095E000E27
:101DAA000A5A7F0E0924126E000E0A20136E01C011
:101DBA000DF002C00EF003C00FF004C010F0000EC8
:101DCA00016E000E026E000E036E000E046E000E0F
:101DDA00146E000E156E000E166E000E176E000EB3
:101DEA00196E30EF0FF01950D8B4FEEF0EF000EF75
:101DFA000FF017EF0FF0D8900D360E360F3610365B
:101E0A00D890013602360336043617AE0FEF0FF0BC
:101E1A0011EF0FF012EF0FF00180D890143615363B
:101E2A001636173605500D5C06500E5807500F58D7
:101E3A0008501058D8A024EF0FF026EF0FF02FEF1C
:101E4A000FF0178C05500D5E06500E5A07500F5AA8
:101E5A000850105A192A190E196436EF0FF038EF84
:101E6A000FF0F8EF0EF00D500E100F101010D8B43E
:101E7A0041EF0FF043EF0FF05BEF0FF014805BEFD1
:101E8A000FF0D890013602360336043617AE50EFFB
:101E9A000FF052EF0FF053EF0FF00180D890143685
:101EAA001536163617361206D8A0130603AE60EF9B
:101EBA000FF062EF0FF046EF0FF0000E196E17AE3B
:101ECA0069EF0FF06BEF0FF08FEF0FF0FF0E1414A6
:101EDA00096EFF0E15140A6EFF0E16140B6E7F0E96
:101EEA0017140C6E09500A100B100C10D8B480EF9E
:101EFA000FF082EF0FF086EF0FF0010E196E8FEFE1
:101F0A000FF001A08BEF0FF08DEF0FF08FEF0FF0B6
:101F1A0082EF0FF01950D8B495EF0FF097EF0FF04A
:101F2A00BBEF0FF0010E0126000E0222032204224B
:101F3A0004A0A2EF0FF0A4EF0FF0BBEF0FF001C067
:101F4A0009F002C00AF003C00BF004C00CF00C3414
:101F5A000C320B320A32093209C001F00AC002F00F
:101F6A000BC003F00CC004F0124A132A13BEC6EFCA
:101F7A000FF0135008E11228D8A0C6EF0FF0C8EFEF
:101F8A000FF0D3EF0FF0000E136E1268000E016E01
:101F9A00000E026E000E036E000E046E13BEE0EF1A
:101FAA000FF0135006E11204D8B0DEEF0FF0E0EFA5
:101FBA000FF0EEEF0FF0000E136E000E126E000E11
:101FCA00016E000E026E000E036E000E046E000E0D
:101FDA00116E12C018F018A0F5EF0FF0F7EF0FF01E
:101FEA00FAEF0FF0038EFBEF0FF0039ED890183034
:101FFA00046EB1EF0EF012001EC036F01FC037F0AB
:10200A0020C038F021C039F022C03AF023C03BF09A
:10201A0024C03CF025C03DF03DBE16EF10F019EF8C
:10202A0010F0010E1AEF10F0000E346E356A3450BB
:10203A003510D8B423EF10F025EF10F035EF10F07B
:10204A003D1E3C1E3B1E3A1E391E381E371E366C7C
:10205A00000E3722382239223A223B223C223D22E4
:10206A0059BE3AEF10F03CEF10F03DEF10F05A92E3
:10207A0059BE4AEF10F0595006E15804D8B048EF5B
:10208A0010F04AEF10F050EF10F0000E316E010E12
:10209A00306E54EF10F058C030F059C031F0F1C032
:1020AA0032F0F2C033F034503510D8A45FEF10F09C
:1020BA0061EF10F068EF10F05AA466EF10F068EFC5
:1020CA0010F06BEF10F03206D8A03306000E3F6E08
:1020DA004F0E3E6E000E0101B16FF0EF10F03E069A
:1020EA00D8A03F06620E3E24D96E010E3F20DA6E5A
:1020FA0036C001F037C002F038C003F039C004F02E
:10210A003AC005F03BC006F03CC007F03DC008F0FD
:10211A000A0E096E000E0A6E000E0B6E000E0C6E91
:10212A00000E0D6E000E0E6E000E0F6E000E106E7B
:10213A001AEC15F001C026F002C027F003C028F0FF
:10214A0004C029F005C02AF006C02BF007C02CF005
:10215A0008C02DF026C013F028C014F0DCEC1DF0E6
:10216A001350300FDF6E3006D8A031063206D8A0E1
:10217A00330636C001F037C002F038C003F039C068
:10218A0004F03AC005F03BC006F03CC007F03DC081
:10219A0008F00A0E096E000E0A6E000E0B6E000E93
:1021AA000C6E000E0D6E000E0E6E000E0F6E000EFF
:1021BA00106E56EC14F001C036F002C037F003C0BE
:1021CA0038F004C039F005C03AF006C03BF007C049
:1021DA003CF008C03DF03FBEFBEF10F03F5008E175
:1021EA003E04D8A0FBEF10F0FDEF10F02DEF11F038
:1021FA0036503710381039103A103B103C103D1049
:10220A00D8A40AEF11F00CEF11F074EF10F031BE00
:10221A0019EF11F0315006E13004D8B017EF11F080
:10222A0019EF11F074EF10F033BE24EF11F03350B0
:10223A0008E13204D8A024EF11F026EF11F02DEFB7
:10224A0011F05AB22BEF11F02DEF11F074EF10F0DC
:10225A0034503510D8A434EF11F036EF11F03DEFB9
:10226A0011F05AA43BEF11F03DEF11F05BEF11F0C2
:10227A003E06D8A03F0634503510D8A447EF11F0D7
:10228A0049EF11F04FEF11F0000E2F6E2B0E2E6E4C
:10229A0053EF11F0000E2F6E2D0E2E6E620E3E249D
:1022AA00D96E010E3F20DA6E2EC0DFFF1CC011F07E
:1022BA001DC012F0620E3E24136E010E3F20146EF2
:1022CA0032C015F033C016F01CEC1AF011C01CF025
:1022DA0012C01DF012005AC12AF05BC12BF05CC17A
:1022EA002CF05DC12DF01AC02AF01BC02BF01CC0C7
:1022FA002CF01DC02DF0810E1E6EFF0E1F6E2AC01F
:10230A0020F02BC021F02CC022F02DC023F0180E93
:10231A0094EF11F0D8902332223221322032E82E63
:10232A008FEF11F020501E24286E000E1F20296EF8
:10233A0029BEA9EF11F0295009E1170E285CD8A08F
:10234A00A9EF11F0ABEF11F0B5EF11F01AC01AF0C6
:10235A001BC01BF01CC01CF01DC01DF078EF12F052
:10236A0029BEBAEF11F0BCEF11F02CEF12F028C021
:10237A001EF0FF0E1F6EFF0E206E7F0E216E000EE6
:10238A00226E1E66CBEF11F0D3EF11F02234223207
:10239A00213220321F321E2EC6EF11F01FC024F048
:1023AA0020C025F021C026F022C027F024502A148C
:1023BA001E6E25502B141F6E26502C14206E27508B
:1023CA002D14216E1E501F1020102110D8A4F0EFDA
:1023DA0011F0F2EF11F0F4EF11F0ABEF11F02AC0A7
:1023EA001EF02BC01FF02CC020F02DC021F0200EB3
:1023FA0004EF12F0D890213220321F321E32E82E1A
:10240A00FFEF11F01E501F1020102110D8B410EF4A
:10241A0012F012EF12F01AEF12F024502A26255069
:10242A002B2226502C2227502D22241C1E6E251CBE
:10243A001F6E261C206E271C216E1E502A161F5046
:10244A002B1620502C1621502D1670EF12F02AC090
:10245A001EF02BC01FF02CC020F02DC021F0200E42
:10246A003CEF12F0D890213220321F321E32E82E71
:10247A0037EF12F01E501F1020102110D8A448EF79
:10248A0012F04AEF12F054EF12F0000E2A6E000E0C
:10249A002B6E000E2C6E000E2D6E70EF12F0D8907F
:1024AA002A341E6E2B341F6E2C34206E2D34216E6E
:1024BA001E501F1020102110D8B466EF12F068EFDA
:1024CA0012F070EF12F0000E2A6E000E2B6E800EC4
:1024DA002C6EBF0E2D6E2AC01AF02BC01BF02CC01A
:1024EA001CF02DC01DF01200D3508F0B7009D36E53
:1024FA009368000E0F01396F38699268000E956E65
:10250A00010EC26E000EC16E290EC06E000E946ED0
:10251A00000E966E84686FEC1EF084EC1EF0E1ECFF
:10252A0016F04FEC1EF0000E7AEC1EF0CCEC15F013
:10253A00110E576E3C0E566ECB0EE82EFED7562E57
:10254A00FCD7572EFAD700F0110E576E3C0E566E76
:10255A00CB0EE82EFED7562EFCD7572EFAD700F010
:10256A00000E026E000E016E5FEC1EF001EC1CF014
:10257A00410E576EF00E566E330EE82EFED7562ECB
:10258A00FCD7572EFAD700F04FEC1EF0000E7AEC6B
:10259A001EF05B0E026E030E036E72EC1CF0BAECB8
:1025AA001DF009C0E7F00AC0E8F00001F951E75D43
:1025BA00E851800A566EFA51800A5658D8B0E8EFA8
:1025CA0012F0EAEF12F0D4EF12F0D58E0D0E836EF0
:1025DA00000E026E010E016E5FEC1EF0BAEC1DF0E9
:1025EA0009C0E9F00AC0EAF00001F751E95DEA51D1
:1025FA00800A566EF851800A5658D8B007EF13F081
:10260A0009EF13F0F3EF12F0D59E76EC1BF00FC032
:10261A00EBF010C0ECF011C0EDF012C0EEF0000EBD
:10262A000001F66F000EF56FEBC01AF0ECC01BF05C
:10263A00EDC01CF0EEC01DF03DEC1CF01AC0E3F03A
:10264A001BC0E4F01CC0E5F01DC0E6F04FEC1EF024
:10265A00000E7AEC1EF0120E026E030E036E72EC7E
:10266A001CF0DD0E836E110E576E3C0E566ECB0EAD
:10267A00E82EFED7562EFCD7572EFAD700F0EBC01D
:10268A00B3F0ECC0B4F0EDC0B5F0EEC0B6F0E3C004
:10269A00B7F0E4C0B8F0E5C0B9F0E6C0BAF0BDECF6
:1026AA001BF0F2880001F351F411D8B45FEF13F074
:1026BA0061EF13F057EF13F0000EF46F000EF36F93
:1026CA00000E836E4FEC1EF0000E7AEC1EF05B0ECD
:1026DA00026E030E036E72EC1CF0000E026E000E08
:1026EA00016E5FEC1EF0D4EF12F030EF00F0096ECD
:1026FA000950D8B483EF13F085EF13F0A7EF13F066
:10270A0004BE8CEF13F08AEF13F0A7EF13F001C0A9
:10271A0005F002C006F003C007F004C008F0051E69
:10272A00061E071E081E052A000E06220722082278
:10273A0005C00BF006C00CF007C00DF008C00EF083
:10274A00AFEF13F001C00BF002C00CF003C00DF0A4
:10275A0004C00EF00150021003100410D8A4B8EF00
:10276A0013F0BAEF13F0C4EF13F0000E016E000E6F
:10277A00026E000E036E000E046E55EF14F0960EF4
:10278A000A6ECEEF13F00A2AD8900E320D320C32AE
:10279A000B32000E0B14056E000E0C14066E000EA2
:1027AA000D14076EFE0E0E14086E05500610071063
:1027BA000810D8A4E3EF13F0E5EF13F0C8EF13F015
:1027CA00F3EF13F00A2A010E0B26000E0C220D223B
:1027DA000E22D8900E320D320C320B32000E0B1430
:1027EA00056E000E0C14066E000E0D14076EFF0E19
:1027FA000E14086E0550061007100810D8A408EF2A
:10280A0014F00AEF14F0E7EF13F012EF14F00A06CF
:10281A00D8900B360C360D360E360DBE17EF14F067
:10282A0019EF14F021EF14F0020E0A601FEF14F0F2
:10283A0021EF14F00CEF14F00AB026EF14F028EF91
:10284A0014F029EF14F00D9ED8900A320AC005F050
:10285A00066A076A086A05C008F0076A066A056A0E
:10286A0005500B1206500C1207500D1208500E128A
:10287A000950D8B443EF14F045EF14F04DEF14F0BB
:10288A0004BE4CEF14F04AEF14F04DEF14F00E8E24
:10289A000BC001F00CC002F00DC003F00EC004F032
:1028AA001200000E126E10BE5FEF14F05DEF14F00E
:1028BA0071EF14F0101E0F1E0E1E0D1E0C1E0B1EA5
:1028CA000A1E096C000E0A220B220C220D220E226D
:1028DA000F221022010E126E08BE78EF14F076EF66
:1028EA0014F08AEF14F0081E071E061E051E041EA9
:1028FA00031E021E016C000E02220322042205227C
:10290A00062207220822010E121A20EE13F0070EE1
:10291A00DE6AE806FDE209500A100B100C100D10D1
:10292A000E100F101010D8B49DEF14F09FEF14F092
:10293A00F1EF14F0010E116EADEF14F0D8900936D4
:10294A000A360B360C360D360E360F361036112A6D
:10295A0010AEB2EF14F0B4EF14F0A3EF14F0D89065
:10296A0013361436153616361736183619361A36F9
:10297A000950015C0A5002580B5003580C50045875
:10298A000D5005580E5006580F5007581050085849
:10299A00D8A0D2EF14F0D4EF14F0E5EF14F00950F8
:1029AA00015E0A50025A0B50035A0C50045A0D5039
:1029BA00055A0E50065A0F50075A1050085A1380DB
:1029CA00D89010320F320E320D320C320B320A32DC
:1029DA000932112EB4EF14F01250D8B4F7EF14F0F4
:1029EA00F9EF14F009EF15F01A1E191E181E171E1A
:1029FA00161E151E141E136C000E14221522162202
:102A0A001722182219221A2213C001F014C002F048
:102A1A0015C003F016C004F017C005F018C006F080
:102A2A0019C007F01AC008F01200000E126E08BE94
:102A3A0023EF15F021EF15F035EF15F0081E071EEC
:102A4A00061E051E041E031E021E016C000E022233
:102A5A00032204220522062207220822010E126EF0
:102A6A0010BE3CEF15F03AEF15F04CEF15F0101EC2
:102A7A000F1E0E1E0D1E0C1E0B1E0A1E096C000ECA
:102A8A000A220B220C220D220E220F22102209509A
:102A9A000A100B100C100D100E100F101010D8B4D5
:102AAA0059EF15F05BEF15F0A3EF15F0010E116E5B
:102ABA0069EF15F0D89009360A360B360C360D3602
:102ACA000E360F361036112A10AE6EEF15F070EF73
:102ADA0015F05FEF15F00950015C0A5002580B50CF
:102AEA0003580C5004580D5005580E5006580F50F4
:102AFA00075810500858D8A085EF15F087EF15F041
:102B0A0097EF15F00950015E0A50025A0B50035A0A
:102B1A000C50045A0D50055A0E50065A0F50075AB7
:102B2A001050085AD89010320F320E320D320C3231
:102B3A000B320A320932112E70EF15F01250D8B446
:102B4A00A9EF15F0ABEF15F0BBEF15F0081E071E45
:102B5A00061E051E041E031E021E016C000E022222
:102B6A0003220422052206220722082201C001F0BC
:102B7A0002C002F003C003F004C004F005C005F06F
:102B8A0006C006F007C007F008C008F01200110ED0
:102B9A00836E220E026E030E036E72EC1CF0000EA0
:102BAA00146E000E136E000E026E000E016E5FECC4
:102BBA001EF0000E106E000E0F6EBAEC1DF00950DA
:102BCA0013260A5014220F4A102A10BEF6EF15F0E7
:102BDA00105009E1140E0F5CD8A0F6EF15F0F8EFCB
:102BEA0015F0E2EF15F013C001F014C002F0000E68
:102BFA00046E150E036EBAEC19F001C0F9F002C0AA
:102C0A00FAF0000E146E000E136E000E026E010E24
:102C1A00016E5FEC1EF0000E126E000E116EBAEC21
:102C2A001DF0095013260A501422114A122A12BE04
:102C3A0028EF16F0125009E1140E115CD8A028EF03
:102C4A0016F02AEF16F014EF16F013C001F014C0B4
:102C5A0002F0000E046E150E036EBAEC19F001C0F4
:102C6A00F7F002C0F8F0110E0E6E3C0E0D6ECB0E90
:102C7A00E82EFED70D2EFCD70E2EFAD700F0110E35
:102C8A000E6E3C0E0D6ECB0EE82EFED70D2EFCD727
:102C9A000E2EFAD700F0000E836E4FEC1EF0010ED6
:102CAA00026E030E036E72EC1CF01200000E0A6E26
:102CBA0008BE64EF16F062EF16F06EEF16F0081E0B
:102CCA00071E061E056C000E062207220822010EA8
:102CDA000A6E04BE75EF16F073EF16F07FEF16F06A
:102CEA00041E031E021E016C000E0222032204228D
:102CFA00010E0A1A000E0B6E000E0C6E000E0D6EFF
:102D0A00000E0E6E0550061007100810D8B490EF8A
:102D1A0016F092EF16F0C8EF16F0010E096E9CEF4E
:102D2A0016F0D8900536063607360836092A08AE50
:102D3A00A1EF16F0A3EF16F096EF16F0D8900B3627
:102D4A000C360D360E360550015C065002580750F7
:102D5A00035808500458D8A0B5EF16F0B7EF16F08C
:102D6A00C0EF16F00550015E0650025A0750035A8A
:102D7A000850045A0B80D8900832073206320532BE
:102D8A00092EA3EF16F00A50D8B4CEEF16F0D0EF02
:102D9A0016F0D8EF16F00E1E0D1E0C1E0B6C000E50
:102DAA000C220D220E220BC001F00CC002F00DC045
:102DBA0003F00EC004F012000F0E8B16000E5D6EAB
:102DCA00000E5C6E020E036E380E026EAD0EE82E19
:102DDA00FED7022EFCD7032EFAD700F0030E8B6E15
:102DEA0000D000D000D000D08B8800D000D000D016
:102DFA0000D08B500F0B8B6E00D000D000D000D0CB
:102E0A00340E026EF20EE82EFED7022EFCD700D048
:102E1A0000D000D000D08B8800D000D000D000D0E5
:102E2A008B500F0B8B6E00D000D000D000D0420E1A
:102E3A00E82EFED700D000D000D000D000D08B887A
:102E4A0000D000D000D000D08B500F0B8B6E00D07A
:102E5A0000D000D000D0420EE82EFED700D0020EDD
:102E6A008B6E00D000D000D000D08B8800D000D06C
:102E7A0000D000D08B500F0B8B6E00D000D000D04A
:102E8A0000D0420EE82EFED700D0290E2AEC1BF005
:102E9A001D0E2AEC1BF0790E2AEC1BF0500E2AECC0
:102EAA001BF06C0E2AEC1BF0280E2AEC1BF00E0EFF
:102EBA002AEC1BF0010E2AEC1BF0060E2AEC1BF082
:102ECA001200033404340A6E0A50D8A46FEF17F0C4
:102EDA0071EF17F07BEF17F0000E016E000E026E15
:102EEA00000E036E000E046EE8EF17F001C005F045
:102EFA0002C006F003C007F004C008F0200E8BEFF2
:102F0A0017F0D8900832073206320532E82E86EFDB
:102F1A0017F00550096E038EFF0E0116FF0E0216FA
:102F2A00FF0E0316000E0416960E0A5E0ABEA2EFE4
:102F3A0017F0A0EF17F0B8EF17F00A50800A970FB2
:102F4A00D8B0AAEF17F0ACEF17F0AEEF17F071EFA9
:102F5A0017F0D89004320332023201320A3EAEEF41
:102F6A0017F0D0EF17F01F0E0A64BEEF17F0C0EF8C
:102F7A0017F0C8EF17F071EF17F0D8900136023644
:102F8A00033604360A060A50D8A4CEEF17F0D0EF5B
:102F9A0017F0C2EF17F00950D8B4D6EF17F0D8EFF0
:102FAA0017F0E0EF17F0041E031E021E016C000E5C
:102FBA0002220322042201C001F002C002F003C06F
:102FCA0003F004C004F01200000E1A14226E000E60
:102FDA001B14236E800E1C14246E7F0E1D14256E86
:102FEA002250231024102510D8A4FEEF17F000EF6A
:102FFA0018F008EF18F0000E1A6E000E1B6E000E85
:10300A001C6E000E1D6E000E1E14226E000E1F1482
:10301A00236E800E2014246E7F0E2114256E2250FA
:10302A00231024102510D8A41DEF18F01FEF18F054
:10303A0027EF18F0000E1E6E000E1F6E000E206E97
:10304A00000E216E1DAE2CEF18F02EEF18F037EFA0
:10305A0018F01A6C1B1ED8B01B2A1C1ED8B01C2ACA
:10306A00800E1D5621AE3CEF18F03EEF18F047EFE8
:10307A0018F01E6C1F1ED8B01F2A201ED8B0202A96
:10308A00800E2156000E1A1A000E1B1A000E1C1A68
:10309A00800E1D1A000E1E1A000E1F1A000E201A8C
:1030AA00800E211A1E501A5C1F501B5820501C58A3
:1030BA0021501D58D8B064EF18F066EF18F069EF88
:1030CA0018F0D8906AEF18F0D88012005EC10BF0A1
:1030DA005FC10CF060C10DF061C10EF001C00BF0D0
:1030EA0002C00CF003C00DF004C00EF00BC005F0D6
:1030FA000CC006F00DC007F00EC008F0180E8BEFDA
:10310A0018F0D8900832073206320532E82E86EFD8
:10311A0018F00550096E0A6A09500A10D8A498EFE7
:10312A0018F09AEF18F0BAEF18F0D8900B34056E31
:10313A000C34066E0D34076E0E34086E05500610F8
:10314A0007100810D8A4ACEF18F0AEEF18F0B4EFDF
:10315A0018F0000E026E020E016EE9EF18F0000E72
:10316A00026E030E016EE9EF18F009280A10D8A4BE
:10317A00C1EF18F0C3EF18F0E5EF18F00BC005F037
:10318A000CC006F00DC007F00EC008F0090ED8906A
:10319A000536063607360836E82ECCEF18F0055005
:1031AA00061007100810D8B4DDEF18F0E0EF18F099
:1031BA00010EE1EF18F0000E016E026AE9EF18F055
:1031CA00000E026E040E016E120001C008F002C069
:1031DA0009F003C00AF004C00BF00506D8A00606E1
:1031EA00052806E10628D8A4FDEF18F0FFEF18F02D
:1031FA000CEF19F0000E026E000E016E54EF19F07A
:10320A00084A092A0A4A0B2A0506D8A0060608C04F
:10321A00D9FF09C0DAFFDF50D8B416EF19F018EF5A
:10322A0019F043EF19F00AC0F6FF0BC0F7FF0800C8
:10323A00F5500009D8B424EF19F026EF19F043EF3E
:10324A0019F005500610D8B42DEF19F02FEF19F028
:10325A0043EF19F008C0D9FF09C0DAFFDF50076E43
:10326A000AC0F6FF0BC0F7FF0800F5500718D8B4DC
:10327A0041EF19F043EF19F005EF19F008C0D9FF33
:10328A0009C0DAFFDF50076E0AC0F6FF0BC0F7FF6E
:10329A000800F550075C016E026AD8A00206120007
:1032AA0003500410D8B45CEF19F05EEF19F067EF21
:1032BA0019F003500410D8A465EF19F067EF19F05C
:1032CA006CEF19F001508BEC1EF0B9EF19F020EEFB
:1032DA0009F00350D9260450DA22DE50DE10D8B4A1
:1032EA0079EF19F07BEF19F096EF19F020EE09F05B
:1032FA000350D9260450DA2210EE03F00350E126D7
:10330A000450E222DE50E65CE650800A096EDE5086
:10331A00800A0958D8B094EF19F096EF19F0B9EF6E
:10332A0019F020EE03F00350D9260450DA22DECF3A
:10333A0005F0DDCF06F003C0D9FF04C0DAFFDECF07
:10334A0007F0DDCF08F005500724D96E0650082093
:10335A00DA6E01C0DFFF20EE03F00350D9260450D5
:10336A00DA22DE2A000EDD221200000E066E04BEEC
:10337A00C3EF19F0C1EF19F0C9EF19F0036C041E7D
:10338A00D8B0042A010E066E02BED0EF19F0CEEFB5
:10339A0019F0D6EF19F0016C021ED8B0022A010EFC
:1033AA00061A000E086E000E076E03500410D8B4F9
:1033BA00E1EF19F0E3EF19F00BEF1AF0010E056EC9
:1033CA00EBEF19F0D89003360436052A04AEF0EF75
:1033DA0019F0F2EF19F0E7EF19F0D890073608362E
:1033EA000350015C04500258D8A0FEEF19F000EF18
:1033FA001AF005EF1AF00350015E0450025A0780D2
:10340A00D89004320332052EF2EF19F00650D8B4E0
:10341A0011EF1AF013EF1AF017EF1AF0076C081EE3
:10342A00D8B0082A07C001F008C002F012005AA05A
:10343A0021EF1AF023EF1AF02DEF1AF013C00AF059
:10344A0014C00BF011C00CF012C00DF098EC1DF076
:10345A0016BE32EF1AF034EF1AF03AEF1AF015C02E
:10346A001AF016C01BF03EEF1AF0000E1B6E000E8B
:10347A001A6E000E196E000E186E50EF1AF0000E3A
:10348A00026E200E016E11C003F012C004F055EC5A
:10349A0019F0184A192A1A50185C1950800A176E1E
:1034AA001B50800A1758D8A05DEF1AF05FEF1AF088
:1034BA0044EF1AF05AB064EF1AF066EF1AF070EFA0
:1034CA001AF013C00AF014C00BF011C00CF012C0AD
:1034DA000DF098EC1DF013C001F014C002F034ECAA
:1034EA001EF01A500124116E1B500220126E120097
:1034FA00000E066E02BE86EF1AF084EF1AF08CEF09
:10350A001AF0016C021ED8B0022A010E066E04BE21
:10351A0093EF1AF091EF1AF097EF1AF0036C041E6A
:10352A00D8B0042A03500410D8B49EEF1AF0A0EFC2
:10353A001AF0C4EF1AF0010E056EA8EF1AF0D8902F
:10354A0003360436052A04AEADEF1AF0AFEF1AF0CF
:10355A00A4EF1AF00350015C04500258D8A0B8EF47
:10356A001AF0BAEF1AF0BEEF1AF00350015E0450D7
:10357A00025AD89004320332052EAFEF1AF00650E1
:10358A00D8B4CAEF1AF0CCEF1AF0D0EF1AF0016CE7
:10359A00021ED8B0022A01C001F002C002F01200D5
:1035AA00000E0114096E000E02140A6E800E031436
:1035BA000B6E7F0E04140C6E09500A100B100C10BF
:1035CA00D8A4EAEF1AF0ECEF1AF0F4EF1AF0000EB2
:1035DA00016E000E026E000E036E000E046E000EE7
:1035EA000514096E000E06140A6E800E07140B6E7F
:1035FA007F0E08140C6E09500A100B100C10D8A478
:10360A0009EF1BF00BEF1BF013EF1BF0000E056E1A
:10361A00000E066E000E076E000E086E05500118A9
:10362A000FE1065002180CE10750031809E108508F
:10363A000418D8B423EF1BF025EF1BF028EF1BF07A
:10364A00D89029EF1BF0D8801200016E01380F0BB9
:10365A008B6E5C045D10D8A435EF1BF037EF1BF0BE
:10366A003AEF1BF08B8C3CEF1BF00F0E8B1600D041
:10367A0000D000D000D08B8800D000D000D000D07D
:10368A008B500F0B8B6E00D000D000D000D000D032
:10369A0000D000D000D001500F0B8B6E5C045D107F
:1036AA00D8A45AEF1BF05CEF1BF05FEF1BF08B8C7A
:1036BA0061EF1BF00F0E8B1600D000D000D000D0A7
:1036CA008B8800D000D000D000D08B500F0B8B6EAF
:1036DA0000D000D000D000D0420EE82EFED700D095
:1036EA001200F5C013F0F6C014F0133A143AF00EB3
:1036FA00141613500F0B1412F00E131613C015F0F4
:10370A0014C016F0D650D7CF13F0146A13C014F0B1
:10371A00136A1326000E142213C001F014C002F01B
:10372A00000E02BEFF0E036E046EA00E056E0F0E93
:10373A00066E000E076E000E086E5BEC16F0015066
:10374A0015260250162215C001F016C002F0000E0E
:10375A0002BEFF0E036E046E010E7CEC13F001C074
:10376A000FF002C010F003C011F004C012F01200F2
:10377A004FEC1EF020EEBBF0130EDE6AE806FDE207
:10378A00BB0E00019E6F000E9F6F510EA06F030EBD
:10379A00A16FB3C0A2F0B4C0A3F0B5C0A4F0B6C084
:1037AA00A5F004EC1DF0BB0E026E000E036E72EC67
:1037BA001CF0280E7AEC1EF020EECFF0130EDE6A13
:1037CA00E806FDE2CF0E00019E6F000E9F6F310EDC
:1037DA00A06F030EA16FB7C0A2F0B8C0A3F0B9C022
:1037EA00A4F0BAC0A5F004EC1DF0CF0E026E000ED4
:1037FA00036E72EC1CF012004FEC1EF020EEB3F0D8
:10380A00130EDE6AE806FDE2B30E00019E6F000E9B
:10381A009F6F470EA06F030EA16FF9C0A2F0FAC006
:10382A00A3F004EC1DF0B30E026E000E036E72ECF0
:10383A001CF0280E7AEC1EF020EEC7F0130EDE6A9A
:10384A00E806FDE2C70E00019E6F000E9F6F3D0E57
:10385A00A06F030EA16FF7C0A2F0F8C0A3F004ECAA
:10386A001DF0C70E026E000E036E72EC1CF0120001
:10387A00000E056E000E066E7A0E076E440E086E76
:10388A001AC001F01BC002F01CC003F01DC004F0F6
:10389A0034EC0EF001C01EF002C01FF003C020F08D
:1038AA0004C021F0000E016E000E026EB80E036E07
:1038BA00410E046E1EC005F01FC006F020C007F0BE
:1038CA0021C008F034EC0EF001C01AF002C01BF05F
:1038DA0003C01CF004C01DF01200000E5D6E010E44
:1038EA005C6E8CEF1CF002C0F6FF03C0F7FFF86AAB
:1038FA00020EF76403D00800F55005D0F6CFE1FFB9
:10390A00F7CFE2FFE7502AEC1BF0024A032A02C073
:10391A00F6FF03C0F7FFF86A020EF76403D0080047
:10392A00F55005D0F6CFE1FFF7CFE2FFE7500009E7
:10393A00D8A4A2EF1CF0A4EF1CF078EF1CF0120040
:10394A009AC054F09BC055F0000E0001F06F000EB3
:10395A00EF6FC3EF1CF098C092F099C093F0540E29
:10396A00946F000E956F9CC096F09DC097F03AEC4C
:10397A000CF000019251EF279351F02354C0F6FF47
:10398A0055C0F7FF0800F5500009D8A4CFEF1CF086
:10399A00D1EF1CF0B0EF1CF0EFC098F0F0C099F036
:1039AA00120003C007F004C008F001C009F002C009
:1039BA000AF00750056E0850066E074A082A05C025
:1039CA00F6FF06C0F7FFF86A09C0D9FF0AC0DAFF96
:1039DA00094A0A2A020EF76403D00800F55005D0F6
:1039EA00F6CFE1FFF7CFE2FFE750DF6EDF50D8A452
:1039FA0001EF1DF003EF1DF0DEEF1CF01200A20E26
:103A0A000001A66F000EA76F9EC0A8F09FC0A9F084
:103A1A00000EAC6F000EAB6F000EB26F000EB16FEE
:103A2A00A80E986F000E996FA0C09AF0A1C09BF0E3
:103A3A00A60E9C6F000E9D6FA5EC1CF00001AB5109
:103A4A009E25D96EAC519F21DA6E000EDF6E1200F0
:103A5A00140EF66E3D0EF76E000EF86E0900F5CFE5
:103A6A00FBF00900F5CFFCF001EE00F0B20EEE6AB1
:103A7A00E806FDE100EEEFF00C0EEE6AE806FDE165
:103A8A005D6A5C6A5B6A5A6A596A586A5E905E92B3
:103A9A00000EF86E000179EF12F0BF0E096EFF0EEC
:103AAA000A6E07C00BF008C00CF009500B260A502A
:103ABA000C220C5007E11A0E0B5CD8B067EF1DF010
:103ACA0069EF1DF070EF1DF0200E0710076E085009
:103ADA00086E74EF1DF007C007F008C008F0120066
:103AEA00000E1E1A000E1F1A000E201A800E211A2E
:103AFA001AC001F01BC002F01CC003F01DC004F084
:103B0A001EC005F01FC006F020C007F021C008F053
:103B1A00C5EC07F001C01AF002C01BF003C01CF08C
:103B2A0004C01DF01200000E106E000E0F6EA9EFF9
:103B3A001DF00EC001F0026A0CC003F00DC004F0C3
:103B4A0055EC19F00F4A102A0F500A24D96E10505A
:103B5A000B20DA6EDF500E6E0E50D8A4B7EF1DF0B0
:103B6A00B9EF1DF09EEF1DF01200C2500209C26E9D
:103B7A00C2B2C2EF1DF0C4EF1DF0BDEF1DF0C4507C
:103B8A00040DF3CF0BF0F4CF0CF0C3CF01F0026AAF
:103B9A00000E046E400E036EBAEC19F001500B26AB
:103BAA0002500C220BC009F00CC00AF0120014BE1D
:103BBA00E9EF1DF0145006E11304D8B0E7EF1DF049
:103BCA00E9EF1DF0F7EF1DF013C015F014C016F061
:103BDA00151E161E154A162A15C013F016C014F023
:103BEA00FBEF1DF013C013F014C014F01200BF0E47
:103BFA00036EFF0E046E01C005F002C006F003500A
:103C0A0005260450062206500AE11A0E055CD8A0C1
:103C1A0011EF1EF014EF1EF0010E15EF1EF0000E4C
:103C2A00016E026A12000150021003100410D8B487
:103C3A0021EF1EF023EF1EF02BEF1EF0000E011AEB
:103C4A00000E021A000E031A800E041A01C001F0B7
:103C5A0002C002F003C003F004C004F0120001C065
:103C6A0003F002C004F03CEF1EF0014A022A01C030
:103C7A00D9FF02C0DAFFDF50D8A446EF1EF048EFA2
:103C8A001EF03AEF1EF00350015C016E0450025818
:103C9A00026E1200000E5D6E000E5C6E010E2AECC2
:103CAA001BF00B0E026E620EE82EFED7022EFCD718
:103CBA0000D0120001500210D8A466EF1EF068EF7F
:103CCA001EF06CEF1EF0110EC26E6EEF1EF00D0E9E
:103CDA00C26E1200D59ED59CD59AD598D586F29EED
:103CEA00F28CF28AD08EF28E1200026E000E5D6E97
:103CFA00000E5C6E0250800F2AEC1BF01200F29E3E
:0E3D0A00F19CF28CF28EF29212001700120061
:020000040020DA
:08000000FFFFFFFFFFFFFFFF00
:020000040030CA
:0E000000FF691F3CFFBF85FF03C003E0034004
:00000001FF
